{
  "contractName": "hack",
  "abi": [
    {
      "inputs": [],
      "name": "last_completed_migration",
      "outputs": [
        {
          "internalType": "uint256",
          "name": "",
          "type": "uint256"
        }
      ],
      "stateMutability": "view",
      "type": "function"
    },
    {
      "inputs": [],
      "name": "owner",
      "outputs": [
        {
          "internalType": "address",
          "name": "",
          "type": "address"
        }
      ],
      "stateMutability": "view",
      "type": "function"
    },
    {
      "inputs": [
        {
          "internalType": "address payable",
          "name": "_buyer",
          "type": "address"
        }
      ],
      "name": "pay",
      "outputs": [],
      "stateMutability": "payable",
      "type": "function"
    },
    {
      "inputs": [
        {
          "internalType": "uint256",
          "name": "completed",
          "type": "uint256"
        }
      ],
      "name": "setCompleted",
      "outputs": [],
      "stateMutability": "nonpayable",
      "type": "function"
    }
  ],
  "bytecode": "0x6080604052336000806101000a81548173ffffffffffffffffffffffffffffffffffffffff021916908373ffffffffffffffffffffffffffffffffffffffff16021790555034801561005057600080fd5b5061041d806100606000396000f3fe60806040526004361061003f5760003560e01c80630c11dedd14610044578063445df0ac146100605780638da5cb5b1461008b578063fdacd576146100b6575b600080fd5b61005e6004803603810190610059919061024e565b6100df565b005b34801561006c57600080fd5b50610075610129565b6040516100829190610294565b60405180910390f35b34801561009757600080fd5b506100a061012f565b6040516100ad91906102d0565b60405180910390f35b3480156100c257600080fd5b506100dd60048036038101906100d89190610317565b610153565b005b8073ffffffffffffffffffffffffffffffffffffffff166108fc349081150290604051600060405180830381858888f19350505050158015610125573d6000803e3d6000fd5b5050565b60015481565b60008054906101000a900473ffffffffffffffffffffffffffffffffffffffff1681565b60008054906101000a900473ffffffffffffffffffffffffffffffffffffffff1673ffffffffffffffffffffffffffffffffffffffff163373ffffffffffffffffffffffffffffffffffffffff16146101e1576040517f08c379a00000000000000000000000000000000000000000000000000000000081526004016101d8906103c7565b60405180910390fd5b8060018190555050565b600080fd5b600073ffffffffffffffffffffffffffffffffffffffff82169050919050565b600061021b826101f0565b9050919050565b61022b81610210565b811461023657600080fd5b50565b60008135905061024881610222565b92915050565b600060208284031215610264576102636101eb565b5b600061027284828501610239565b91505092915050565b6000819050919050565b61028e8161027b565b82525050565b60006020820190506102a96000830184610285565b92915050565b60006102ba826101f0565b9050919050565b6102ca816102af565b82525050565b60006020820190506102e560008301846102c1565b92915050565b6102f48161027b565b81146102ff57600080fd5b50565b600081359050610311816102eb565b92915050565b60006020828403121561032d5761032c6101eb565b5b600061033b84828501610302565b91505092915050565b600082825260208201905092915050565b7f546869732066756e6374696f6e206973207265737472696374656420746f207460008201527f686520636f6e74726163742773206f776e657200000000000000000000000000602082015250565b60006103b1603383610344565b91506103bc82610355565b604082019050919050565b600060208201905081810360008301526103e0816103a4565b905091905056fea2646970667358221220d9cb968e8023816c27b27f141b2f1d9a6f2050ef4908262d8afff3e4b98562bd64736f6c63430008090033",
  "immutableReferences": {},
  "source": "pragma solidity ^0.8.4;\n\n\ncontract hack {\n    address public owner = msg.sender;\n    uint public last_completed_migration;\n\n    modifier restricted() {\n        require(\n            msg.sender == owner,\n            \"This function is restricted to the contract's owner\"\n        );\n        _;\n    }\n\n\n    function pay(address payable _buyer ) payable public {\n        _buyer.transfer(msg.value);\n    }\n    \n\n    function setCompleted(uint completed) public restricted {\n        last_completed_migration = completed;\n    }\n\n}",
  "sourcePath": "/Users/preritrawtani/Desktop/web-dev/hack/contracts/hack.sol",
  "compiler": {
    "name": "solc",
    "version": "0.8.9+commit.e5eed63a.Emscripten.clang"
  },
  "schemaVersion": "3.4.7",
  "updatedAt": "2022-05-28T07:35:03.252Z",
  "devdoc": {
    "kind": "dev",
    "methods": {},
    "version": 1
  },
  "userdoc": {
    "kind": "user",
    "methods": {},
    "version": 1
  }
}